:100000000C9475000C9492000C9492000C94920045
:100010000C9492000C9492000C9492000C94920018
:100020000C9492000C9492000C9492000C94920008
:100030000C9492000C9492000C9492000C949200F8
:100040000C9492000C9492000C9492000C949200E8
:100050000C9492000C9492000C9492000C949200D8
:100060000C9492000C94920007634236B79BD8A779
:100070001A39685618AEBAAB558C1D3CB7CC5763CD
:10008000BD6DEDFD753EF6177231BF000000803F7B
:1000900008000000BE922449123EABAAAA2ABECD97
:1000A000CCCC4C3E00000080BEABAAAAAA3E000009
:1000B0000000BF000000803F000000000008417801
:1000C000D3BB4387D1133D190E3CC3BD4282AD2B38
:1000D0003E68EC8276BED98FE1A93E4C80EFFFBE30
:1000E00001C4FF7F3F000000000011241FBECFEFBE
:1000F000D8E0DEBFCDBF11E0A0E0B1E0EEEEF8E168
:1001000002C005900D92A237B107D9F721E0A2E70E
:10011000B1E001C01D92AE3AB207E1F70E94DC05E2
:100120000C94750C0C9400000F931F93CF938B01CC
:100130009C01C42F87B18F7C87B9443079F018F4C3
:10014000413031F023C0403191F04034C9F01EC03D
:10015000E9EBF0E080818C7F80831EC0E9EBF0E06A
:1001600080818D7F808380818160808315C0E9EBF1
:10017000F0E080818E7F80838081826080830CC0EC
:10018000E9EBF0E080818360808306C0E9EBF0E07A
:1001900080818C7F8083C1E060E074E284EF90E036
:1001A000A90198010E940A0CCA01B90160517109A4
:1001B000810991094C2F50E09A01220F331F032E21
:1001C000000C440B550B0E940A0C2093B800ECEB7A
:1001D000F0E0808184608083CF911F910F9108951A
:1001E00084EA8093BC008091BC008823E4F70895E2
:1001F00084E98093BC0008958093BB0084E88093D9
:10020000BC008091BC008823E4F78091B900887F0E
:10021000883131F0883231F0803429F481E008955A
:1002200081E0089581E00895DC01662331F0ECEB74
:10023000F0E090819064908305C0ECEBF0E0908159
:100240009F7B9083ECEBF0E090819068908390919D
:10025000BC009923E4F79091B900987F983511F08C
:10026000903529F48091BB008C9381E00895892F0B
:10027000089540E050E05DC021E030E0042E02C06F
:10028000220F331F0A94E2F728233923232B39F155
:10029000FA01E050FF4F208138EF320F363080F402
:1002A000E5B130E02850310961E070E0DB0102C0C7
:1002B000AA0FBB1F2A95E2F79D012E2B25B937C047
:1002C0002830A8F5EBB161E070E0DB0102C0AA0FB5
:1002D000BB1F2A95E2F79D012E2B2BB928C0FA01EE
:1002E000E050FF4F208138EF320F363088F4E5B10F
:1002F00030E02850310961E070E0DB0102C0AA0F54
:10030000BB1F2A95E2F79D0120952E2325B90FC02A
:10031000283068F4EBB161E070E0DB0102C0AA0FA5
:10032000BB1F2A95E2F79D0120952E232BB94F5F25
:100330005F4F4A3051050CF49FCF8BB180618BB970
:100340008FED9EE20197F1F700C000008BB18F7E28
:100350008BB9089520E027C0E22FF0E0E050FF4F76
:10036000808198EF980F963078F434B190E0089738
:1003700041E050E0BA0102C0660F771F8A95E2F7AC
:10038000CB01832B84B90EC0883060F43AB141E0D0
:1003900050E0BA0102C0660F771F8A95E2F7CB01E1
:1003A000832B8AB92F5F2A30B8F28FE59AEE019736
:1003B000F1F700C0000080EE90E00E9439018FE16B
:1003C0009EE40197F1F700C0000080E390E00E94F6
:1003D00039018FE39CE90197F1F700C0000088E143
:1003E00090E00E9439018FE39CE90197F1F700C08A
:1003F000000084E090E00E9439018FE39CE90197BE
:10040000F1F700C00000089540E050E05DC021E039
:1004100030E0042E02C0220F331F0A94E2F7282393
:100420003923232B39F1FA01E050FF4F208138EFB7
:10043000320F363080F4E5B130E02850310961E008
:1004400070E0DB0102C0AA0FBB1F2A95E2F79D01F5
:100450002E2B25B937C02830A8F5EBB161E070E04C
:10046000DB0102C0AA0FBB1F2A95E2F79D012E2BCC
:100470002BB928C0FA01E050FF4F208138EF320F2E
:10048000363088F4E5B130E02850310961E070E0A1
:10049000DB0102C0AA0FBB1F2A95E2F79D01209540
:1004A0002E2325B90FC0283068F4EBB161E070E06D
:1004B000DB0102C0AA0FBB1F2A95E2F79D01209520
:1004C0002E232BB94F5F5F4F4A3051050CF49FCF5D
:1004D0008FED9EE20197F1F700C000008BB18061C3
:1004E0008BB9AFEDBEE21197F1F700C000008BB100
:1004F0008F7E8BB9089590E0880F991F880F991F00
:1005000081600E94040208950F931F93CF93DF939D
:100510008C01C0E0D0E003C00E947B022196F8016C
:10052000EC0FFD1F80818111F7CFDF91CF911F91DB
:100530000F9108956115710541F4880F991F880F77
:10054000991F9E5F0E94040208956130710549F46D
:10055000805C9F4F880F991F880F991F9E5F0E9494
:100560000402089584E090E00E94040208958F92AE
:100570009F92AF92BF92CF92DF92EF92FF920F9332
:100580001F93CF93DF93CDB7DEB72A970FB6F894BA
:10059000DEBF0FBECDBF4B015C017A010E9417097F
:1005A0008B01072E000C880B990B0E944F099B01B1
:1005B000AC01C501B4010E94380820E030E048ECED
:1005C00052E40E94E0090E9417096B01772324F48A
:1005D000CC24DD24C61AD70A01151105C1F480E325
:1005E000D7018C93E1E0F0E02CC0C8016AE070E034
:1005F0000E94F60BE1E0F0E0EC0FFD1FE20FF31FAD
:10060000805D8083062F172F2F5F3F4F02C020E0B1
:1006100030E0101611064CF3E0E0F0E00FC0C70127
:100620008E0F9F1F21503109A1E0B0E0AC0FBD1F1C
:10063000A20FB31F4C91DC014C9331961216130696
:1006400074F38F010F5F1F4FD701AE0FBF1F8EE2F4
:100650008C939F012E5F3F4F0E0D1F1DC6016AE058
:1006600070E00E94F60B605DD8016C933396D70161
:10067000A20FB31F805D8C93EE0DFF1D10822A9692
:100680000FB6F894DEBF0FBECDBFDF91CF911F91A3
:100690000F91FF90EF90DF90CF90BF90AF909F9021
:1006A0008F900895CF93DF93CDB7DEB72A970FB61B
:1006B000F894DEBF0FBECDBF242FAE014F5F5F4F5A
:1006C0000E94B702CE0101960E9484022A960FB6BC
:1006D000F894DEBF0FBECDBFDF91CF91089581307A
:1006E00021F098F18230C9F008950E94B20260E0D2
:1006F00070E080E090E00E949A028DE091E00E941C
:1007000084022FEF8DE399E4215080409040E1F77F
:1007100000C000000E94B20208950E94B20260E090
:1007200070E080E090E00E949A028EE191E00E94E9
:1007300084022FEF8DE399E4215080409040E1F74F
:1007400000C000000E94B20208950E94B20260E060
:1007500070E080E090E00E949A028FE291E00E94B7
:1007600084022FEF8DE399E4215080409040E1F71F
:1007700000C000000E94B20208954F925F926F92F3
:100780007F928F929F92AF92BF92EF922B013C018A
:1007900049015A0160E070E080E090E00E949A0216
:1007A00086E491E00E94840241E0C301B2010E940C
:1007B000520380E20E947B028FED0E947B0289E45B
:1007C00091E00E9484026DE070E081E090E00E9480
:1007D0009A028BE491E00E948402EE2019F08FE3EC
:1007E00091E002C082E491E00E94840261E070E046
:1007F00080E090E00E949A028EE491E00E948402E0
:1008000042E0C501B4010E94520381E591E00E94DB
:100810008402EF90BF90AF909F908F907F906F90E9
:100820005F904F9008950E945F0790E0909374014D
:1008300080937301009709F461C081349105F1F44C
:1008400081E08093760185B1806285B90E94B20211
:1008500060E070E084E090E00E949A0285E591E01B
:100860000E9484022FEF8DE399E421508040904054
:10087000E1F700C000000E94B2021FC0813691055E
:10088000E1F41092760185B18F7D85B90E94B202A4
:1008900061E070E084E090E00E949A028CE591E0D3
:1008A0000E9484022FEF8DE399E421508040904014
:1008B000E1F700C000000E94B20280917601882317
:1008C000E9F080917301909174018335910521F4D1
:1008D00081E08093750108958337910519F4109292
:1008E000750108958635910521F481E080937201A8
:1008F00008958637910511F4109272010895CF93EF
:100900000E94F00080E70E94FC00813019F00E94F4
:10091000F80034C08CEA0E94FC0083E30E94FC00D3
:1009200080E00E94FC000E94F8002FEF86E191E138
:10093000215080409040E1F700C000000E94F0008C
:1009400081E70E94FC008130A1F00E94F80016C0EF
:1009500061E0C53008F060E08C2F90E085589E4F34
:100960000E941401813019F00E94F80007C0CF5F87
:1009700001C0C0E0C63060F30E94F800CF91089536
:100980000E94F00081E60E94FC00813019F00E9474
:10099000F800089560E081E891E00E9414010E944F
:1009A000F80008954F925F926F927F92AF92BF923C
:1009B000CF92DF92EF92FF920F931F93CF93DF932B
:1009C00000D000D0CDB7DEB72B013C017A01590130
:1009D0000E94170969837A838B839C8329813A81DA
:1009E000B901330F880B990B0E944F099B01AC0191
:1009F000C301B2010E9438082B013C014AE0B70153
:100A000089819A810E94400C1A82198205C08981CD
:100A10009A8101969A838983E981FA81EE0DFF1DFF
:100A200080818111F4CF29813A812F5F3F4F3A8332
:100A300029838EE2808300E010E02AC020E030E0CD
:100A400040E251E4C301B2010E94E0092B013C01E4
:100A50000E941709C980DA803FEFC31AD30AE981DF
:100A6000FA81EE0DFF1D20E3260F2083072E000CD8
:100A7000880B990B0E944F099B01AC01C301B20185
:100A80000E9438082B013C010F5F1F4FDA82C98298
:100A90000A151B059CF229813A812E0D3F1DF90193
:100AA00010820F900F900F900F90DF91CF911F91B8
:100AB0000F91FF90EF90DF90CF90BF90AF907F901D
:100AC0006F905F904F9008954F925F926F927F92D8
:100AD0008F929F92AF92BF92CF92DF92EF92FF924E
:100AE0000F931F93CF93DF93CDB7DEB764970FB605
:100AF000F894DEBF0FBECDBFC82ED62E49015A01D5
:100B000083E70E9468076C2D70E080E090E00E940F
:100B10004D090E941B0880E20E94680782E70E943C
:100B200068076D2D70E080E090E00E944D090E9402
:100B30001B0880E20E94680784E50E94680721E0A4
:100B400030E0AE014F5F5F4FC501B4010E94D20497
:100B5000CE0101960E946F0780E20E94680788E438
:100B60000E94680722E030E0AE01455F5F4FC80198
:100B7000B7010E94D204CE010B960E946F0780E25B
:100B80000E9468078AE00E94680764960FB6F8948E
:100B9000DEBF0FBECDBFDF91CF911F910F91FF90B0
:100BA000EF90DF90CF90BF90AF909F908F907F900D
:100BB0006F905F904F90089541E060EA76E881E0A1
:100BC00090E00E9494000E9453070E94AA0160E0F6
:100BD00070E080E090E00E949A0284E691E00E943A
:100BE00084022FEF87EA91E6215080409040E1F7A0
:100BF00000C000000E94B2028AB184608AB98BB141
:100C000084608BB90E94F00080E70E94FC0081EEB6
:100C10000E94FC000E94F8002FEF86E191E1215034
:100C200080409040E1F700C000000E9413040E9441
:100C30007F04EBE7F1E063816F70862F90E0A0E026
:100C4000B0E0BC0155274427848190E0A0E0B0E0EB
:100C5000BA2FA92F982F8827842B952BA62BB72B3B
:100C60002581BC01CD01622B0E944D0920E030E0BE
:100C700048E453E40E94E00920E030E040E855E316
:100C80000E94E00920E030E048E452E40E94380885
:100C900060939601709397018093980190939901C6
:100CA00021E030E042E851E00E94D2048BB18B7F1A
:100CB0008BB9609196017091970180919801909104
:100CC000990120E030E048EE51E40E94DB0918165B
:100CD0006CF40E94F00080E80E94FC00813019F45E
:100CE00086E50E94FC000E94F8000CC00E94F00003
:100CF00080E80E94FC00813019F486E70E94FC0025
:100D00000E94F8000E94C00460918101611101C03D
:100D100061E070E080E090E00E944F099B01AC012F
:100D200060E070E080EA90E40E94A5089B01AC01BD
:100D300060E070E088E492E40E94A50820E030E0E2
:100D400040E050E40E944D0A20E030E04AE754E4DD
:100D50000E94A508609377017093780180937901D0
:100D600090937A010E94F00081E80E94FC0081309B
:100D700059F484E88093BC008091BC008823E4F798
:100D80008091BB0080930C010E94F8008FE19EE4EB
:100D90000197F1F700C0000080910C019FEF980FC0
:100DA000923030F491E0909375010E946F030BC074
:100DB000811105C0109275010E946F0304C0843038
:100DC00011F4109275019091750180910B019817A3
:100DD000B1F00E94F00080E80E94FC00813049F4EC
:100DE00080917501813011F483E501C083E70E9491
:100DF000FC000E94F8008091750180930B01909196
:100E0000720180910A019817B1F00E94F00080E809
:100E10000E94FC00813049F480917201813011F40C
:100E200086E501C086E70E94FC000E94F8008091E0
:100E3000720180930A0120917701309178014091ED
:100E4000790150917A01609196017091970180919A
:100E5000980190919901C0907601E0907501009100
:100E60000C010E94BD03E0907701F09078010091A1
:100E7000790110917A01209196013091970140916A
:100E800098015091990160910C01809175010E9427
:100E900064059FEF29E688E1915020408040E1F70A
:100EA00000C00000C2CE1092C50087E68093C40047
:100EB00088E98093C10086E08093C2000895809104
:100EC000C00088231CF48091C600089580E0089536
:100ED0009091C00095FFFCCF8093C6000895AC01AF
:100EE00020E007C09091C00095FFFCCF3093C60072
:100EF0002F5FFA01E20FF11D30813111F3CF089518
:100F00008F929F92AF92BF92CF92DF92EF92FF9219
:100F10000F931F93CF93DF93CDB7DEB72A970FB60A
:100F2000F894DEBF0FBECDBF4B015C017A010E9479
:100F300017098B01072E000C880B990B0E944F0993
:100F40009B01AC01C501B4010E94380820E030E0EB
:100F500048EC52E40E94E0090E9417096B017723D4
:100F600024F4CC24DD24C61AD70A01151105C1F4D6
:100F700080E3D7018C93E1E0F0E02CC0C8016AE087
:100F800070E00E94F60BE1E0F0E0EC0FFD1FE20FD5
:100F9000F31F805D8083062F172F2F5F3F4F02C006
:100FA00020E030E0101611064CF3E0E0F0E00FC056
:100FB000C7018E0F9F1F21503109A1E0B0E0AC0F97
:100FC000BD1FA20FB31F4C91DC014C93319612163A
:100FD000130674F38F010F5F1F4FD701AE0FBF1FB2
:100FE0008EE28C939F012E5F3F4F0E0D1F1DC60199
:100FF0006AE070E00E94F60B605DD8016C93339656
:10100000D701A20FB31F805D8C93EE0DFF1D1082E0
:101010002A960FB6F894DEBF0FBECDBFDF91CF91F9
:101020001F910F91FF90EF90DF90CF90BF90AF9006
:101030009F908F900895CF93DF93CDB7DEB72A9717
:101040000FB6F894DEBF0FBECDBF22E0AE014F5FFA
:101050005F4F0E948007CE0101960E946F072A967B
:101060000FB6F894DEBF0FBECDBFDF91CF910895CC
:101070005058BB27AA270E9450080C94A1090E942F
:10108000930938F00E949A0920F039F49F3F19F42F
:1010900026F40C9490090EF4E095E7FB0C948A0971
:1010A000E92F0E94B20958F3BA1762077307840741
:1010B000950720F079F4A6F50C94D4090EF4E09588
:1010C0000B2EBA2FA02D0B01B90190010C01CA0102
:1010D000A0011124FF27591B99F0593F50F4503EAD
:1010E00068F11A16F040A22F232F342F4427585F9F
:1010F000F3CF469537952795A795F0405395C9F7B7
:101100007EF41F16BA0B620B730B840BBAF091506E
:10111000A1F0FF0FBB1F661F771F881FC2F70EC00D
:10112000BA0F621F731F841F48F4879577956795E0
:10113000B795F7959E3F08F0B0CF9395880F08F0CC
:101140009927EE0F9795879508950E94B9080C94FA
:10115000A1090E949A0958F00E94930940F029F4CD
:101160005F3F29F00C948A0951110C94D5090C9415
:1011700090090E94B20968F39923B1F3552391F3C2
:10118000951B550BBB27AA2762177307840738F0F6
:101190009F5F5F4F220F331F441FAA1FA9F335D053
:1011A0000E2E3AF0E0E832D091505040E695001C07
:1011B000CAF72BD0FE2F29D0660F771F881FBB1FC1
:1011C000261737074807AB07B0E809F0BB0B802D9F
:1011D000BF01FF2793585F4F3AF09E3F510578F0CB
:1011E0000C948A090C94D5095F3FE4F3983ED4F33C
:1011F000869577956795B795F7959F5FC9F7880F9F
:10120000911D9695879597F90895E1E0660F771FF0
:10121000881FBB1F621773078407BA0720F0621B81
:10122000730B840BBA0BEE1F88F7E09508950E94AC
:101230001E096894B1110C94D50908950E94BA0949
:1012400088F09F5798F0B92F9927B751B0F0E1F087
:10125000660F771F881F991F1AF0BA95C9F714C037
:10126000B13091F00E94D409B1E008950C94D409F2
:10127000672F782F8827B85F39F0B93FCCF3869570
:1012800077956795B395D9F73EF4909580957095CD
:1012900061957F4F8F4F9F4F0895E89409C097FB4A
:1012A0003EF490958095709561957F4F8F4F9F4F3D
:1012B0009923A9F0F92F96E9BB279395F695879581
:1012C00077956795B795F111F8CFFAF4BB0F11F444
:1012D00060FF1BC06F5F7F4F8F4F9F4F16C08823EB
:1012E00011F096E911C0772321F09EE8872F762F21
:1012F00005C0662371F096E8862F70E060E02AF062
:101300009A95660F771F881FDAF7880F969587954D
:1013100097F9089597F99F6780E870E060E0089575
:101320009FEF80EC089500240A94161617061806FD
:101330000906089500240A941216130614060506D9
:101340000895092E0394000C11F4882352F0BB0F6A
:1013500040F4BF2B11F460FF04C06F5F7F4F8F4FCD
:101360009F4F089557FD9058440F551F59F05F3F08
:1013700071F04795880F97FB991F61F09F3F79F0B7
:1013800087950895121613061406551FF2CF469539
:10139000F1DF08C0161617061806991FF1CF8695BB
:1013A0007105610508940895E894BB27662777279F
:1013B000CB0197F908950E94D70A08F48FEF08959A
:1013C0000E94F3090C94A1090E94930938F00E942D
:1013D0009A0920F0952311F00C948A090C94900935
:1013E00011240C94D5090E94B20970F3959FC1F3A2
:1013F000950F50E0551F629FF001729FBB27F00DC3
:10140000B11D639FAA27F00DB11DAA1F649F662717
:10141000B00DA11D661F829F2227B00DA11D621F66
:10142000739FB00DA11D621F839FA00D611D221F20
:10143000749F3327A00D611D231F849F600D211D04
:10144000822F762F6A2F11249F5750409AF0F1F087
:1014500088234AF0EE0FFF1FBB1F661F771F881FF0
:1014600091505040A9F79E3F510580F00C948A0995
:101470000C94D5095F3FE4F3983ED4F386957795B5
:101480006795B795F795E7959F5FC1F7FE2B880F96
:10149000911D9695879597F90895FA01EE0FFF1F14
:1014A000309621053105A1F16115710561F480388F
:1014B000BFE39B0749F168949038810561F080385B
:1014C000BFEF9B0741F099234AF5FF3FE105310546
:1014D000210519F1E8940894E795D901AA2329F484
:1014E000AB2FBE2FF85FD0F310C0FF5F70F4A6954E
:1014F000E0F7F73950F019F0FF3A38F49F779F93EF
:101500000DD00F9007FC9058089546F00C94900968
:1015100060E070E080E89FE308954FE79F775F9376
:101520004F933F932F930E946C0B2F913F914F91BC
:101530005F910E94E0090C94A50A29F416F00C941E
:101540008A090C94D4090C9490090E94BA09A8F352
:101550009638A0F707F80F92E8942BE33AEA48EBA5
:101560005FE70E94F6090F920F920F924DB75EB798
:101570000F920E94B40BE8E6F0E00E94FB0A4F9144
:101580005F91EF91FF91E595EE1FFF1F49F0FE5728
:10159000E0684427EE0F441FFA95E1F74195550B9B
:1015A0000E942E0B0F9007FE0C94220B0895990FAA
:1015B0000008550FAA0BE0E8FEEF16161706E8071D
:1015C000F907C0F012161306E407F50798F0621B3E
:1015D000730B840B950B39F40A2661F0232B242B13
:1015E000252B21F408950A2609F4A140A6958FEF32
:1015F000811D811D0895DF93CF931F930F93FF9259
:10160000EF92DF927B018C01689406C0DA2EEF0125
:101610000E94F309FE01E894A59125913591459129
:101620005591A6F3EF010E945008FE019701A80111
:10163000DA9469F7DF90EF90FF900F911F91CF91AF
:10164000DF9108959B01AC0160E070E080E89FE3CA
:101650000C94A5080C948A090C94E80B0E94BA0912
:10166000D8F39923C9F3940F511DA3F3915050401F
:1016700094F059F0882332F0660F771F881F91503D
:101680005040C1F79E3F51052CF7880F911D96954C
:10169000879597F908955F3FACF0983E9CF0BB2783
:1016A000869577956795B79508F4B1609395C1F7DE
:1016B000BB0F58F711F460FFE8CF6F5F7F4F8F4F7C
:1016C0009F4FE3CF0C94D50916F00C94E80B0C94C3
:1016D000900968940C948A090E94BA09A8F3992386
:1016E000C1F3AEF3DF93CF931F930F93FF92C92FF4
:1016F000DD2788232AF02197660F771F881FDAF7E6
:1017000020E030E040E85FEB9FE3883920F0803E46
:1017100038F021968F770E943908E0E9F0E004C0A4
:101720000E943908EDEBF0E00E94FB0A8B01BE013C
:10173000EC01FB2E6F5771097595771F880B990B7C
:101740000E944F0928E132E741E35FE30E94F30979
:10175000AF2D9801AE01FF900F911F91CF91DF91B6
:101760000E9450080C94A109FA01DC01AA0FBB1FCA
:101770009B01AC01BF5728F4222733274427507818
:1017800020C0B75190F4AB2F00244695379527958C
:10179000011CA395D2F3002071F0220F331F441FC8
:1017A000B395DAF30ED00C94380861307105A0E8D7
:1017B0008A07B94630F49B01AC0166277727882752
:1017C0009078309621F020833183428353830895AB
:1017D0009F3F31F0915020F4879577956795B795A5
:1017E000880F911D9695879597F9089597FB072E79
:1017F00016F4009407D077FD09D00E942C0C07FC4A
:1018000005D03EF4909581959F4F08957095619510
:101810007F4F0895A1E21A2EAA1BBB1BFD010DC02C
:10182000AA1FBB1FEE1FFF1FA217B307E407F50790
:1018300020F0A21BB30BE40BF50B661F771F881F6C
:10184000991F1A9469F760957095809590959B0102
:10185000AC01BD01CF010895AA1BBB1B51E107C01C
:10186000AA1FBB1FA617B70710F0A61BB70B881F30
:10187000991F5A95A9F780959095BC01CD010895BF
:10188000BB274A3031F4992322F4BDE2909581952B
:101890009F4F0C944C0CBB27FB015527AA27880FA0
:1018A000991FAA1FA41710F0A41B83955051B9F7D4
:1018B000A05DAA3308F0A95DA193009779F7B11153
:1018C000B1931192CB010C94650CDC01FC01672FE4
:1018D00071917723E1F7329704C07C916D93708307
:0E18E0006291AE17BF07C8F30895F894FFCFCA
:1018EE00030405060708090A0B0CFFFF034269658E
:1018FE006E76656E69646F205061626C6F0042692E
:10190E00656E76656E69646F20506564726F004116
:10191E00636365736F2064656E656761646F004F06
:10192E004E004F464600543A004300533A00483AA0
:10193E000070706D004F4E4C494E45004F46464C60
:10194E00494E4500496E696369616E646F2E2E2E95
:02195E00000087
:00000001FF
