S01400004573636C61766F31503144322E737265631B
S11300000C9434000C9451000C9451000C94510045
S11300100C9451000C9451000C9451000C94510018
S11300200C9451000C9451000C9451000C94510008
S11300300C9451000C9451000C9451000C945100F8
S11300400C9451000C9451000C9451000C945100E8
S11300500C9451000C9451000C9451000C945100D8
S11300600C945D000C94510011241FBECFEFD8E016
S1130070DEBFCDBF11E0A0E0B1E0ECE3FDE002C0E3
S113008005900D92A434B107D9F721E0A4E4B1E0BE
S113009001C01D92A834B207E1F70E94C8000C9475
S11300A09C060C94000097B19F7C97B9880F8093AD
S11300B0BA0085E48093BC0008951F920F920FB696
S11300C00F9211248F93EF93FF938091B9008C7F4B
S11300D0803899F028F4803651F0803741F03BC0E5
S11300E0883A71F1883B61F18039A9F506C0ECEBDF
S11300F0F0E08081806C808333C08091BB008335C5
S113010021F481E08093450115C08091BB008337C1
S113011019F4109245010EC08091BB00863521F47C
S113012081E08093440106C08091BB00863711F4BE
S113013010924401ECEBF0E08081806C808310C06D
S113014080910A018093BB0083E080930A0185ECCF
S11301508093BC0005C0ECEBF0E08081806C808370
S1130160FF91EF918F910F900FBE0F901F901895F4
S11301708AB180618AB98BB18F7E8BB98AB188606C
S11301808AB98AB18B7F8AB98BB184608BB908959F
S1130190CF93DF93CDB7DEB760970FB6F894DEBF89
S11301A00FBECDBF0E94B8000E941C0480E40E94D0
S11301B053000E9474030E94DE010E94120484EB27
S11301C00E94DE03789480914601882321F080E028
S11301D00E94DE0303C084EB0E94DE03809147018A
S11301E0833729F4109247011092460107C08335E2
S11301F029F41092470181E08093460180914501E2
S1130200882321F080E00E94DE0303C084EB0E9477
S1130210DE0380914401882321F08BB180618BB986
S113022003C08BB18F7E8BB9BE016F5F7F4F82E5B8
S11302300E940303813009F06CC0CE0101960E9434
S11302403803813009F061C080930101809300017B
S1130250D12C21C00D2D10E0EE24E394F12CEC0EF2
S1130260FD1EE00EF11EF70180810E9440048AE029
S11302700E942804F7018081F801EA5FFE4F908113
S1130280891310920101F801EE5FFE4F90818913EA
S113029010920001D394F3E0FD15E0F68091010182
S11302A0882369F011E010930A018BE091E00E9429
S11302B02F04109346018AE00E94280422C08091F2
S11302C00001882371F082E080930A018CE191E0BF
S11302D00E942F0481E0809346018AE00E94280452
S11302E010C08DE291E00E942F0410920A01109236
S11302F0460181E080930101809300018AE00E941D
S113030028048AE00E94280404C08DE391E00E943E
S11303102F044A990EC01092460184E080930A018A
S11303202FEF89E698E1215080409040E1F700C02A
S1130330000080914701863529F48BB180618BB927
S11303401092470180914701863729F48BB18F7E43
S11303508BB910924701EFEFF0E722E0E150F04053
S11303602040E1F700C000002ECFCF93C62F95B1F7
S11303709B7F95B990E0880F991F8E770E9479032F
S11303808C2F0E94790385B1846085B9CF9108953B
S113039095B19B7F95B990E0880F991F8E778068FF
S11303A00E94790380E00E94790395B1946095B925
S11303B008956FE081E00E94B50108950E94D9017B
S11303C06DE88AE20E94B5016EE38BE20E94B501FA
S11303D06EE18CE20E94B50160E08DE20E94B501FD
S11303E060E485E10E94B5016DE381E10E94B501FD
S11303F084E10E94C801982F937029F4682F6360E8
S113040084E10E94B50108954F925F926F927F92AA
S11304108F929F92AF92BF92CF92DF92EF92FF9210
S11304200F931F93CF93DF93D82F7B01C42F5901D0
S11304308C3029F08E3061F0912C812C10C00F2E5D
S1130440F0E39F2EF02D0F2EF7E78F2EF02D07C02F
S11304506894992494F80F2EF2E18F2EF02D84E005
S11304600E94C801682F6F7784E00E94B5018AE07A
S11304700E94C801682F60688AE00E94B50160E0AC
S113048081E00E94B501412C512C32010CC0F701CE
S1130490E40DF51D608189E00E94B5018FEF481AD3
S11304A0580A680A780A8C2F90E0A0E0B0E0481659
S11304B059066A067B0658F36D2F81E00E94B50148
S11304C0DC3041F48DE00E94C801682F60688DE043
S11304D00E94B5010F2EF0EDCF2EF7E0DF2EE12CB8
S11304E0F12CF02D84E00E94C801C82FE1E0CE1A5F
S11304F0D108E108F10829F080FD03C0892D8C237F
S113050089F38DE00E94C801682F6F778DE00E9407
S1130510B501CD28CE28CF2809F460C086E00E941A
S1130520C8018B7109F05CC0C821C0FD02C0C1E0E4
S113053001C0C2E0DC3009F054C08AE00E94C80166
S1130540D82F8CE00E94C801282F2770A9F08D2F86
S113055090E00197880F991F880F991F880F991FA2
S1130560820F911D092E000CAA0BBB0BF80180838E
S11305709183A283B38311C08D2F90E0880F991FBC
S1130580880F991F880F991F092E000CAA0BBB0B0B
S1130590F80180839183A283B383D11101C0D1E098
S11305A0D13108F0D0E1C12CD12C76010DC08501E8
S11305B00C0D1D1D89E00E94C801F8018083FFEF26
S11305C0CF1ADF0AEF0AFF0A8D2F90E0A0E0B0E017
S11305D0C816D906EA06FB0650F303C0C3E001C0FF
S11305E0C3E08C2FDF91CF911F910F91FF90EF907B
S11305F0DF90CF90BF90AF909F908F907F906F903F
S11306005F904F900895EF92FF920F931F93CF93B3
S1130610DF9300D000D0CDB7DEB7182F7B0167E0A1
S11306208DE00E94B501F70110838E010F5F1F4F0B
S1130630970141E0B7018CE00E940402813051F43B
S113064049815A816B817C81403151056105710575
S113065019F403C083E001C083E00F900F900F9062
S11306600F90DF91CF911F910F91FF90EF9008951C
S1130670EF92FF920F931F93CF93DF9300D000D09C
S1130680CDB7DEB77C0160E08DE00E94B50183E95F
S1130690F701808380E281838E010F5F1F4F9701F2
S11306A042E0B7018CE00E940402813091F407C05B
S11306B0F701E90FF11D308123279F5F02C020E07D
S11306C090E09430A8F3F701E90FF11D908129130C
S11306D083E00F900F900F900F90DF91CF911F91B7
S11306E00F91FF90EF9008958CE284B981E58CBD61
S11306F008958EBD0DB407FEFDCF8EB508954F92BB
S11307005F926F927F92AF92BF92CF92DF92EF92FD
S1130710FF920F931F93CF93DF93CDB7DEB7289744
S11307200FB6F894DEBF0FBECDBF29013A01ED82AA
S1130730FE820F8318870E94930469837A838B83D4
S11307409C83A6019501698D7A8D8B8D9C8D0E9469
S113075093049B01AC0169817A818B819C810E9405
S11307602F0669837A838B839C83A3019201C8013A
S1130770B7010E9493049B01AC0169817A818B814A
S11307809C810E9400059B01AC01C601B5010E9439
S1130790940428960FB6F894DEBF0FBECDBFDF9148
S11307A0CF911F910F91FF90EF90DF90CF90BF906A
S11307B0AF907F906F905F904F900895AF92BF92EB
S11307C0CF92DF92EF92FF920F931F93682F70E006
S11307D080E090E00E94A10522E42F9328E12F936A
S11307E01F921F920F2EA12CB12CC12CF1E4DF2EED
S11307F0F02DE12CF12C04E313E420E030E0A90116
S11308000E947F030F900F900F900F900E9472052B
S113081068BD1F910F91FF90EF90DF90CF90BF9034
S1130820AF9008958AB180628AB983E284BD8DE075
S113083085BD89EF87BD08951092C50087E6809332
S1130840C40088E98093C10086E08093C2000895C3
S11308509091C00095FFFCCF8093C6000895AC0131
S113086020E007C09091C00095FFFCCF3093C600F4
S11308702F5FFA01E20FF11D30813111F3CF08959A
S1130880CF93DF93CDB7DEB728970FB6F894DEBFCA
S11308900FBECDBF81111DC080E3898381E02FC0CD
S11308A0E5E0F0E0EC0FFD1FE20FF11D9DEC899FE8
S11308B0912D1124969596959695492F440F342F92
S11308C0330F330F340F831B805D8083892F2F5F99
S11308D001C020E08111E4CF10C02150E5E0F0E038
S11308E0EC0FFD1FE20FF11D9081E1E0F0E0EC0F51
S11308F0FD1FE80FF11D90838F5F2111EECFE1E022
S1130900F0E0EC0FFD1FE80FF11D1082CE010196FF
S11309100E942F0428960FB6F894DEBF0FBECDBFF9
S1130920DF91CF9108955058BB27AA270E94AB04AA
S11309300C94F5050E94E70538F00E94EE0520F0BE
S113094039F49F3F19F426F40C94E4050EF4E09571
S1130950E7FB0C94DE05E92F0E94060658F3BA174C
S1130960620773078407950720F079F4A6F50C94C1
S113097028060EF4E0950B2EBA2FA02D0B01B90119
S113098090010C01CA01A0011124FF27591B99F001
S1130990593F50F4503E68F11A16F040A22F232F0D
S11309A0342F4427585FF3CF469537952795A7955D
S11309B0F0405395C9F77EF41F16BA0B620B730B04
S11309C0840BBAF09150A1F0FF0FBB1F661F771F75
S11309D0881FC2F70EC0BA0F621F731F841F48F42A
S11309E0879577956795B795F7959E3F08F0B0CFB3
S11309F09395880F08F09927EE0F9795879508959A
S1130A000E9414050C94F5050E94EE0558F00E940E
S1130A10E70540F029F45F3F29F00C94DE055111FD
S1130A200C9429060C94E4050E94060668F39923A5
S1130A30B1F3552391F3951B550BBB27AA276217D6
S1130A407307840738F09F5F5F4F220F331F441FE3
S1130A50AA1FA9F335D00E2E3AF0E0E832D0915017
S1130A605040E695001CCAF72BD0FE2F29D0660F04
S1130A70771F881FBB1F261737074807AB07B0E847
S1130A8009F0BB0B802DBF01FF2793585F4F3AF04D
S1130A909E3F510578F00C94DE050C9429065F3FC7
S1130AA0E4F3983ED4F3869577956795B795F795D3
S1130AB09F5FC9F7880F911D9695879597F90895BB
S1130AC0E1E0660F771F881FBB1F62177307840757
S1130AD0BA0720F0621B730B840BBA0BEE1F88F766
S1130AE0E09508950E940E0688F09F5798F0B92F5C
S1130AF09927B751B0F0E1F0660F771F881F991F4F
S1130B001AF0BA95C9F714C0B13091F00E942806C2
S1130B10B1E008950C942806672F782F8827B85FD2
S1130B2039F0B93FCCF3869577956795B395D9F7A6
S1130B303EF490958095709561957F4F8F4F9F4FB0
S1130B400895E89409C097FB3EF4909580957095BC
S1130B5061957F4F8F4F9F4F9923A9F0F92F96E905
S1130B60BB279395F695879577956795B795F1117A
S1130B70F8CFFAF4BB0F11F460FF1BC06F5F7F4F17
S1130B808F4F9F4F16C0882311F096E911C0772329
S1130B9021F09EE8872F762F05C0662371F096E832
S1130BA0862F70E060E02AF09A95660F771F881F01
S1130BB0DAF7880F9695879597F9089597F99F67BF
S1130BC080E870E060E008959FEF80EC08950024D1
S1130BD00A941616170618060906089500240A949E
S1130BE012161306140605060895092E0394000C24
S1130BF011F4882352F0BB0F40F4BF2B11F460FFB3
S1130C0004C06F5F7F4F8F4F9F4F089557FD9058DB
S1130C10440F551F59F05F3F71F04795880F97FBBC
S1130C20991F61F09F3F79F0879508951216130676
S1130C301406551FF2CF4695F1DF08C016161706A5
S1130C401806991FF1CF86957105610508940895DA
S1130C50E894BB2766277727CB0197F908950E946C
S1130C6042060C94F5050E94E70538F00E94EE0553
S1130C7020F0952311F00C94DE050C94E405112466
S1130C800C9429060E94060670F3959FC1F3950FF4
S1130C9050E0551F629FF001729FBB27F00DB11DFC
S1130CA0639FAA27F00DB11DAA1F649F6627B00D8C
S1130CB0A11D661F829F2227B00DA11D621F739F75
S1130CC0B00DA11D621F839FA00D611D221F749F83
S1130CD03327A00D611D231F849F600D211D822FCA
S1130CE0762F6A2F11249F5750409AF0F1F08823F1
S1130CF04AF0EE0FFF1FBB1F661F771F881F91501E
S1130D005040A9F79E3F510580F00C94DE050C94E9
S1130D1029065F3FE4F3983ED4F38695779567956B
S1130D20B795F795E7959F5FC1F7FE2B880F911D47
S10F0D309695879597F90895F894FFCFE5
S1130D3C01016383F72C5CF28F02034269656E76C2
S1130D4C656E69646F205061626C6F004269656EF8
S1130D5C76656E69646F20506564726F00416363DD
S1130D6C65736F2064656E656761646F006572728C
S1070D7C6F7200008E
S9030000FC
