S01400004573636C61766F32503144322E737265631A
S11300000C9434000C9451000C9451000C94510045
S11300100C9451000C9451000C9451000C94510018
S11300200C9451000C9451000C9451000C94510008
S11300300C9451000C9451000C9451000C945100F8
S11300400C9451000C9451000C9451000C945100E8
S11300500C9451000C9401010C9451000C94510027
S11300600C941C010C94510011241FBECFEFD8E056
S1130070DEBFCDBF11E0A0E0B1E0ECE3F3E002C0ED
S113008005900D92A030B107D9F721E0A0E0B1E0CE
S113009001C01D92A330B207E1F70E945F010C94E6
S11300A09C010C940000811106C0ECE7F0E0808113
S11300B08F73808310C0813049F4ECE7F0E08081D5
S11300C08F77808380818064808305C0ECE7F0E0D3
S11300D08081806C8083613031F4ECE7F0E08081D2
S11300E08062808305C0ECE7F0E080818F7D8083AF
S11300F0ECE7F0E08081807F482B408308958130D5
S113010031F4EAE7F0E080818068808305C0EAE7A3
S1130110F0E080818F778083613031F4EAE7F0E0AA
S113012080818062808305C0EAE7F0E080818F7D72
S11301308083413031F4EAE7F0E080818860808395
S113014005C0EAE7F0E08081877F8083203141F1B8
S113015040F4243099F02830D1F0223009F041C025
S113016007C0203479F12038B1F12032D1F521C013
S1130170EAE7F0E08081887F80830895EAE7F0E091
S113018080818260808380818A7F80830895EAE70A
S1130190F0E080818360808380818B7F80830895F9
S11301A0EAE7F0E080818460808380818C7F8083B3
S11301B00895EAE7F0E080818560808380818D7F07
S11301C080830895EAE7F0E08081866080838081FF
S11301D08E7F80830895EAE7F0E0808187608083E2
S11301E00895EAE7F0E08081887F8083089597B1DD
S11301F09F7C97B9880F8093BA0085E48093BC00F4
S113020008951F920F920FB60F9211248F93EF93BC
S1130210FF93809179008093020180930001EAE7C3
S1130220F0E0808180618083FF91EF918F910F9046
S11302300FBE0F901F9018951F920F920FB60F923A
S113024011248F93EF93FF938091B9008C7F8038B2
S113025099F028F4803651F0803741F01FC0883A75
S1130260A9F0883B99F08039C9F406C0ECEBF0E0C2
S11302708081806C808317C08091BB0080930101D2
S1130280ECEBF0E08081806C80830DC080910001F4
S11302908093BB0085EC8093BC0005C0ECEBF0E0E0
S11302A08081806C8083FF91EF918F910F900FBEBE
S11302B00F901F9018958AB188608AB908950E949A
S11302C05B0180E30E94F700789447E061E081E0FD
S11302D00E94530020E841E060E081E00E947F003A
S11302E0EAE7F0E08081806480832FEF80E792E08A
S11302F0215080409040E1F700C00000809102014D
S1130300853620F08BB188608BB903C08BB1877FB1
S11303108BB980910101883429F48BB188608BB941
S113032010920101809101018836D1F68BB1877F4B
S10F03308BB910920101D4CFF894FFCFD8
S9030000FC
