S01000004573636C61766F322E7372656315
S11300000C9434000C9451000C9451000C94510045
S11300100C9451000C9451000C9451000C94510018
S11300200C9451000C9451000C9451000C94510008
S11300300C9451000C9451000C9451000C945100F8
S11300400C9451000C9451000C9451000C945100E8
S11300500C9451000C9451000C9451000C945100D8
S11300600C9411030C94510011241FBECFEFD8E05F
S1130070DEBFCDBF11E0A0E0B1E0E2E4F0E102C0F8
S113008005900D92AE33B107D9F721E0AEE3B1E0AC
S113009001C01D92AB34B207E1F70E949C020C949C
S11300A01F080C940000CF93DF9300D000D0CDB78D
S11300B0DEB749835A836B837C8344E050E0BC0100
S11300C0CE0101960E94C6070F900F900F900F90DB
S11300D0DF91CF910895CF93DF9300D000D0CDB7B7
S11300E0DEB744E050E0BC01CE0101960E94B607A1
S11300F069817A818B819C810F900F900F900F9072
S1130100DF91CF91089580934301609342019AB1A6
S113011021E030E0A90102C0440F551F8A95E2F79F
S1130120842F809589238AB94AB1C901009042017C
S113013002C0880F991F0A94E2F7842B8AB98BB105
S11301400090420102C0220F331F0A94E2F7209567
S113015028232BB9089589B190E00090430102C08F
S1130160959587950A94E2F780FDF5CFE0E040E0AD
S113017050E0BA012EC0FBB181E090E09C010090F8
S1130180420102C0220F331F0A94E2F72F2B2BB92E
S11301900000440F551F661F771F2BB100904201CA
S11301A002C0880F991F0A94E2F7809582238BB9C5
S11301B089B190E00090430102C0959587950A9417
S11301C0E2F780FF04C04F5F5F4F6F4F7F4F000027
S11301D0EF5FE83180F2EBB181E090E09C010090A8
S11301E0420102C0220F331F0A94E2F72E2B2BB9CF
S11301F000002BB10090420102C0880F991F0A949D
S1130200E2F7809582238BB9CB01BA018058089517
S1130210CF92DF92EF92FF92CF93DF93D82FC0E07B
S1130220C12CD12C760107C00E94AB00C60ED71E8C
S1130230E81EF91ECF5FCD17B8F32D2F30E040E054
S113024050E0C701B6010E94B404CA01B901DF91AC
S1130250CF91FF90EF90DF90CF90089560930001CD
S113026070930101809302019093030108956093B8
S11302703E0170933F0180934001909341010895A2
S11302800E9408010E9437010895CF92DF92EF92F5
S1130290FF920E940801C0903E01D0903F01E0907F
S11302A04001F09041016C197D098E099F09C090AD
S11302B00001D0900101E0900201F09003010E943E
S11302C0FF03A70196010E945503FF90EF90DF9072
S11302D0CF9008951092B90088E48093B8000895EF
S11302E094EA9093BC009091BC009923E4F7809326
S11302F0BB0084E88093BC008091BC008823E4F7B1
S113030008958093BB0084E88093BC008091BC0076
S11303108823E4F7089584E98093BC000895CF937B
S1130320C1E0611101C0C0E0C82B80914401880F75
S11303300E9470018C2F8C600E94810100008C2F20
S11303408B7F88600E9481010E948B0180E18A95E5
S1130350F1F700C0CF910895CF93DF93C82FD62F24
S1130360807F0E948F016D2F8C2F8295807F0E9449
S11303708F01DF91CF91089560E00E94AC0183EF7B
S113038091E00197F1F700C00000089580934401C3
S11303900E946A0183ED90E30197F1F700C0000029
S11303A060E080E30E948F0181EE94E00197F1F711
S11303B000C0000060E080E30E948F0192E49A95FF
S11303C0F1F700C060E080E30E948F0181EE94E0C9
S11303D00197F1F700C0000060E080E20E948F0105
S11303E081EE94E00197F1F700C0000088E20E94DA
S11303F0BC018CE00E94BC0181E00E94BC0186E04B
S11304000E94BC01089581E00E94BC0183EF91E049
S11304100197F1F700C000000895CF93DF93EC013A
S113042004C0219661E00E94AC0188818111F9CF5A
S1130430DF91CF9108950F931F93CF93DF93CDB79F
S1130440DEB760970FB6F894DEBF0FBECDBF9F93A3
S11304508F9386E091E09F938F931F9280E18F9317
S11304608E010F5F1F4F1F930F930E94F504C80165
S11304700E940D020FB6F894DEBF0FBECDBF60968A
S11304800FB6F894DEBF0FBECDBFDF91CF911F91A1
S11304900F9108950E94030289E091E00E940D02E9
S11304A02FEF87EA91E6215080409040E1F700C0A9
S11304B0000060E070E080E89FE30E942E0184E188
S11304C00E9440010E94030287E191E00E940D0214
S11304D02FEF8BE792E9215080409040E1F700C074
S11304E0000084E60E940801209104013091050176
S11304F0032E000C440B550B0E94B404BA01A9014D
S11305004093460150934701609348017093490119
S113051080E090E00E9453000E94030286E291E092
S11305200E940D022FEF87EA91E62150804090400F
S1130530E1F700C00000089584B1806284B98AB1F3
S11305408B7F8AB987E20E94C60165E084E00E943D
S1130550830080E090E00E946B00092E000CAA0B3F
S1130560BB0B8093460190934701A0934801B0933D
S11305704901892B8A2B8B2B61F488EE93E0A0E050
S1130580B0E08093460190934701A0934801B09353
S113059049014A990E944A026091460170914701BB
S11305A080914801909149010E94FF030E942E010D
S11305B084E10E9440018AE00E9445016B017C01B4
S11305C00E94030283E391E00E940D02C701B60179
S11305D00E94C703CB010E941B028AE391E00E94A0
S11305E00D0220E030E04AEF53E4C701B6010E9457
S11305F08B04882324F085B1806285B903C085B15A
S11306008F7D85B94A9903C08AE00E9440012FEF8B
S113061085EA9EE0215080409040E1F700C0000050
S1130620CACF1F920F920FB60F9211248F9380910D
S1130630B900887F883A11F138F4883681F080381F
S113064091F0803649F50BC0883BF1F018F4803BFB
S1130650A9F022C0803CE1F0883CD1F01DC085ECBB
S11306608093BC001CC08091BB0080934A0181E050
S11306708093450185EC8093BC0011C01092BB00AF
S113068085EC8093BC000BC085EC8093BC0007C054
S113069085EC8093BC0003C085EC8093BC008F91F3
S11306A00F900FBE0F901F9018950E9469030C9431
S11306B051040E944A0458F00E94430440F029F473
S11306C05F3F29F00C943A0451110C9485040C9466
S11306D040040E94620468F39923B1F3552391F313
S11306E0951B550BBB27AA2762177307840738F09D
S11306F09F5F5F4F220F331F441FAA1FA9F335D0FA
S11307000E2E3AF0E0E832D091505040E695001CAD
S1130710CAF72BD0FE2F29D0660F771F881FBB1F67
S1130720261737074807AB07B0E809F0BB0B802D45
S1130730BF01FF2793585F4F3AF09E3F510578F071
S11307400C943A040C9485045F3FE4F3983ED4F38C
S1130750869577956795B795F7959F5FC9F7880F45
S1130760911D9695879597F90895E1E0660F771F97
S1130770881FBB1F621773078407BA0720F0621B28
S1130780730B840BBA0BEE1F88F7E09508950E9453
S1130790CE036894B1110C94850408950E946A04F0
S11307A088F09F5798F0B92F9927B751B0F0E1F02E
S11307B0660F771F881F991F1AF0BA95C9F714C0DE
S11307C0B13091F00E948404B1E008950C94840443
S11307D0672F782F8827B85F39F0B93FCCF3869517
S11307E077956795B395D9F73EF490958095709574
S11307F061957F4F8F4F9F4F0895E89409C097FBF1
S11308003EF490958095709561957F4F8F4F9F4FE3
S11308109923A9F0F92F96E9BB279395F695879527
S113082077956795B795F111F8CFFAF4BB0F11F4EA
S113083060FF1BC06F5F7F4F8F4F9F4F16C0882391
S113084011F096E911C0772321F09EE8872F762FC7
S113085005C0662371F096E8862F70E060E02AF008
S11308609A95660F771F881FDAF7880F96958795F4
S113087097F9089597F99F6780E870E060E008951C
S11308809FEF80EC089500240A94161617061806A4
S11308900906089500240A94121613061406050680
S11308A00895092E0394000C11F4882352F0BB0F11
S11308B040F4BF2B11F460FF04C06F5F7F4F8F4F74
S11308C09F4F089557FD9058440F551F59F05F3FAF
S11308D071F04795880F97FB991F61F09F3F79F05E
S11308E087950895121613061406551FF2CF4695E0
S11308F0F1DF08C0161617061806991FF1CF869562
S11309007105610508940895E894BB276627772745
S1130910CB0197F908950E94900408F48FEF08958D
S1130920990F0008550FAA0BE0E8FEEF16161706FC
S1130930E807F907C0F012161306E407F50798F064
S1130940621B730B840B950B39F40A2661F0232B7D
S1130950242B252B21F408950A2609F4A140A695F9
S11309608FEF811D811D0895052E97FB1EF40094C1
S11309700E94CB0457FD07D00E94D30407FC03D088
S11309804EF40C94CB0450954095309521953F4FEF
S11309904F4F5F4F089590958095709561957F4F67
S11309A08F4F9F4F0895A1E21A2EAA1BBB1BFD0176
S11309B00DC0AA1FBB1FEE1FFF1FA217B307E4073A
S11309C0F50720F0A21BB30BE40BF50B661F771F92
S11309D0881F991F1A9469F7609570958095909572
S11309E09B01AC01BD01CF010895AEE0B0E0EBEF97
S11309F0F4E00C94F6070D891E898F89988D26E002
S1130A002C831A83098397FF02C080E090E8019742
S1130A109E838D83AE01455E5F4F698D7A8DCE01D5
S1130A2001960E9425054D815E8157FD0AC02F81E4
S1130A303885421753070CF49A01F801E20FF31FAB
S1130A4010822E96E4E00C941208ABE0B0E0EBE2E6
S1130A50F5E00C94E8076C017B018A01FC01178224
S1130A601682838181FFCCC1CE0101963C01F6013F
S1130A709381F70193FD859193FF81917F018823F1
S1130A8009F4BAC1853239F493FD859193FF8191BC
S1130A907F01853229F4B60190E00E941C07E7CF5C
S1130AA0912C212C312CFFE1F315D8F08B3279F005
S1130AB038F4803279F08332A1F4232D20611DC0F3
S1130AC08D3261F0803369F4232D216016C0832DAB
S1130AD08260382EE32DE4603E2E2AC0F32DF860A8
S1130AE01DC037FC2DC020ED280F2A3040F08E3277
S1130AF0B9F436FC81C1232D2064322E19C036FE90
S1130B0006C08AE0989E200D1124922E11C0EAE0BE
S1130B102E9E200D1124222EF32DF0623F2E08C0AC
S1130B208C3621F4832D8068382E02C0883641F437
S1130B30F70193FD859193FF81917F018111B3CFDB
S1130B40982F9F7D9554933028F40C5F1F4F9FE39B
S1130B5099830DC0833631F0833771F0833509F002
S1130B6059C021C0F801808189830E5F1F4F8824FA
S1130B708394912C530113C02801F2E04F0E511CB1
S1130B80F801A080B18036FE03C0692D70E002C078
S1130B906FEF7FEFC5010E9411074C018201F32D15
S1130BA0FF773F2E16C0280122E0420E511CF801A7
S1130BB0A080B18036FE03C0692D70E002C06FEFE3
S1130BC07FEFC5010E9406074C01F32DF0683F2E0C
S1130BD0820133FC1BC0822D90E088169906B0F484
S1130BE0B60180E290E00E941C072A94F4CFF5013C
S1130BF037FC859137FE81915F01B60190E00E9438
S1130C001C0721102A9421E0821A9108811491046E
S1130C1071F7E8C0843611F0893641F5F80137FEE2
S1130C2007C060817181828193810C5F1F4F08C06E
S1130C3060817181072E000C880B990B0E5F1F4F8A
S1130C40F32DFF763F2E97FF09C090958095709500
S1130C5061957F4F8F4F9F4FF0683F2E2AE030E021
S1130C60A3010E945807882E861845C0853731F4A1
S1130C70232D2F7EB22E2AE030E025C0932D997FBC
S1130C80B92E8F36C1F018F4883579F0B5C08037A5
S1130C9019F0883721F0B0C0E92FE061BE2EB4FE10
S1130CA00DC0FB2DF460BF2E09C034FE0AC0292FED
S1130CB02660B22E06C028E030E005C020E130E016
S1130CC002C020E132E0F801B7FE07C06081718103
S1130CD0828193810C5F1F4F06C06081718180E027
S1130CE090E00E5F1F4FA3010E945807882E8618BC
S1130CF0FB2DFF773F2E36FE0DC0232D2E7FA22E17
S1130D00891458F434FE0BC032FC09C0832D8E7E46
S1130D10A82E05C0B82CA32C03C0B82C01C0B92C34
S1130D20A4FE0FC0FE01E80DF11D8081803321F483
S1130D309A2D997EA92E09C0A2FE06C0B394B3943D
S1130D4004C08A2D867809F0B394A3FC11C0A0FED8
S1130D5006C0B21488F4280C922C9B180EC0B2144E
S1130D6060F4B60180E290E00E941C07B394F7CFD0
S1130D70B21418F42B1802C0982C212CA4FE10C015
S1130D80B60180E390E00E941C07A2FE17C0A1FCFC
S1130D9003C088E790E002C088E590E0B6010CC08B
S1130DA08A2D867859F0A1FE02C08BE201C080E250
S1130DB0A7FC8DE2B60190E00E941C07891438F468
S1130DC0B60180E390E00E941C079A94F7CF8A94BE
S1130DD0F301E80DF11D8081B60190E00E941C072B
S1130DE08110F5CF222009F442CEB60180E290E0D2
S1130DF00E941C072A94F6CFF6018681978102C0CF
S1130E008FEF9FEF2B96E2E10C940408FC01059010
S1130E10615070400110D8F7809590958E0F9F1FF8
S1130E200895FC016150704001900110D8F780953D
S1130E3090958E0F9F1F08950F931F93CF93DF9369
S1130E40FB01238121FD03C08FEF9FEF2CC022FF04
S1130E5016C046815781248135814217530744F4D3
S1130E60A081B1819D012F5F3F4F318320838C93FB
S1130E70268137812F5F3F4F3783268314C08B0130
S1130E80EC01FB010084F185E02D0995892BE1F645
S1130E90D80116968D919C911797019617969C935D
S1130EA08E931697CE01DF91CF911F910F910895E4
S1130EB0FA01AA27283051F1203181F1E8946F9387
S1130EC06E7F6E5F7F4F8F4F9F4FAF4FB1E03ED02D
S1130ED0B4E03CD0670F781F891F9A1FA11D680FCB
S1130EE0791F8A1F911DA11D6A0F711D811D911DFE
S1130EF0A11D20D009F468943F912AE0269F112473
S1130F003019305D3193DEF6CF010895462F4770D6
S1130F10405D4193B3E00FD0C9F7F6CF462F4F7031
S1130F20405D4A3318F0495D31FD4052419302D08F
S1130F30A9F7EACFB4E0A695979587957795679535
S1130F40BA95C9F700976105710508959B01AC0135
S1130F500A2E06945795479537952795BA95C9F75C
S1130F60620F731F841F951FA01D0895DC01CB0120
S1130F70FC01F999FECF06C0F2BDE1BDF89A3196A5
S1130F8000B40D9241505040B8F70895DC01A40F0D
S1130F90B51F4150504048F0CB01840F951F2E914E
S1130FA00E94D70741505040D0F70895262FF99951
S1130FB0FECF92BD81BDF89A019700B4021639F0B4
S1130FC01FBA20BD0FB6F894FA9AF99A0FBE089585
S1130FD02F923F924F925F926F927F928F929F9245
S1130FE0AF92BF92CF92DF92EF92FF920F931F9333
S1130FF0CF93DF93CDB7DEB7CA1BDB0B0FB6F894E4
S1131000DEBF0FBECDBF09942A88398848885F8423
S11310106E847D848C849B84AA84B984C884DF8094
S1131020EE80FD800C811B81AA81B981CE0FD11D78
S11310300FB6F894DEBF0FBECDBFED010895F8944E
S1051040FFCFDC
S11310420000803FB90025640043616C69627261EB
S11310526E646F2E2E2E00506F6E67612070657362
S11310626F207265660043616C69627261646F200D
S11110724F4B005065736F3A2000206700005A
S9030000FC
