S01300004D61657374726F503144322E737265633F
S11300000C9434000C9451000C9451000C94510045
S11300100C9451000C9451000C9451000C94510018
S11300200C9451000C9451000C9451000C94510008
S11300300C9451000C9451000C9451000C945100F8
S11300400C9451000C9451000C9451000C945100E8
S11300500C9451000C9451000C9451000C945100D8
S11300600C9451000C94510011241FBECFEFD8E022
S1130070DEBFCDBF11E0A0E0B1E0E2E4F3E102C0F5
S113008005900D92A836B107D9F721E0A8E6B1E0B2
S113009001C01D92AB38B207E1F70E9446050C94EB
S11300A09F090C9400000F931F93CF938B019C0125
S11300B0C42F87B18F7C87B9443079F018F441306C
S11300C031F023C0403191F04034C9F01EC0E9EB57
S11300D0F0E080818C7F80831EC0E9EBF0E08081BA
S11300E08D7F808380818160808315C0E9EBF0E09F
S11300F080818E7F80838081826080830CC0E9EB65
S1130100F0E080818360808306C0E9EBF0E08081C9
S11301108C7F8083C1E060E074E284EF90E0A90109
S113012098010E943409CA01B90160517109810919
S113013091094C2F50E09A01220F331F032E000C1B
S1130140440B550B0E9434092093B800ECEBF0E00B
S1130150808184608083CF911F910F91089584EAF8
S11301608093BC008091BC008823E4F7089584E95F
S11301708093BC0008958093BB0084E88093BC0006
S11301808091BC008823E4F78091B900887F88318E
S113019031F0883231F0803429F481E0089581E02F
S11301A0089581E00895DC01662331F0ECEBF0E082
S11301B090819064908305C0ECEBF0E090819F7B8C
S11301C09083ECEBF0E09081906890839091BC0078
S11301D09923E4F79091B900987F983511F0903500
S11301E029F48091BB008C9381E00895892F0895B0
S11301F040E050E05DC021E030E0042E02C0220F58
S1130200331F0A94E2F728233923232B39F1FA0107
S1130210E050FF4F208138EF320F363080F4E5B1E3
S113022030E02850310961E070E0DB0102C0AA0F20
S1130230BB1F2A95E2F79D012E2B25B937C0283024
S1130240A8F5EBB161E070E0DB0102C0AA0FBB1FAF
S11302502A95E2F79D012E2B2BB928C0FA01E05014
S1130260FF4F208138EF320F363088F4E5B130E0AB
S11302702850310961E070E0DB0102C0AA0FBB1F06
S11302802A95E2F79D0120952E2325B90FC0283029
S113029068F4EBB161E070E0DB0102C0AA0FBB1FA0
S11302A02A95E2F79D0120952E232BB94F5F5F4FCE
S11302B04A3051050CF49FCF8BB180618BB98FED1F
S11302C09EE20197F1F700C000008BB18F7E8BB9DD
S11302D0089520E027C0E22FF0E0E050FF4F808136
S11302E098EF980F963078F434B190E0089741E095
S11302F050E0BA0102C0660F771F8A95E2F7CB017E
S1130300832B84B90EC0883060F43AB141E050E0E8
S1130310BA0102C0660F771F8A95E2F7CB01832BDF
S11303208AB92F5F2A30B8F28FE59AEE0197F1F778
S113033000C0000080EE90E00E94F8008FE19EE48F
S11303400197F1F700C0000080E390E00E94F800FC
S11303508FE39CE90197F1F700C0000088E190E089
S11303600E94F8008FE39CE90197F1F700C00000B8
S113037084E090E00E94F8008FE39CE90197F1F794
S113038000C00000089540E050E05DC021E030E08E
S1130390042E02C0220F331F0A94E2F728233923C4
S11303A0232B39F1FA01E050FF4F208138EF320F4F
S11303B0363080F4E5B130E02850310961E070E076
S11303C0DB0102C0AA0FBB1F2A95E2F79D012E2B69
S11303D025B937C02830A8F5EBB161E070E0DB0146
S11303E002C0AA0FBB1F2A95E2F79D012E2B2BB941
S11303F028C0FA01E050FF4F208138EF320F363029
S113040088F4E5B130E02850310961E070E0DB01A7
S113041002C0AA0FBB1F2A95E2F79D0120952E2347
S113042025B90FC0283068F4EBB161E070E0DB015E
S113043002C0AA0FBB1F2A95E2F79D0120952E2327
S11304402BB94F5F5F4F4A3051050CF49FCF8FEDAE
S11304509EE20197F1F700C000008BB180618BB977
S1130460AFEDBEE21197F1F700C000008BB18F7EB3
S11304708BB9089590E0880F991F880F991F8160A8
S11304800E94C30108950F931F93CF93DF938C01B0
S1130490C0E0D0E003C00E943A022196F801EC0FBC
S11304A0FD1F80818111F7CFDF91CF911F910F91B3
S11304B008956115710541F4880F991F880F991FDC
S11304C09E5F0E94C30108956130710549F4805C08
S11304D09F4F880F991F880F991F9E5F0E94C30129
S11304E0089584E090E00E94C30108958F929F9242
S11304F0AF92BF92CF92DF92EF92FF920F931F932E
S1130500CF93DF93CDB7DEB72A970FB6F894DEBF4B
S11305100FBECDBF4B015C017A010E94C6078B015F
S1130520072E000C880B990B0E94FE079B01AC015F
S1130530C501B4010E94590720E030E048EC52E4C0
S11305400E948F080E94C6076B01772324F4CC24F1
S1130550DD24C61AD70A01151105C1F480E3D701B9
S11305608C93E1E0F0E02CC0C8016AE070E00E94E6
S11305702009E1E0F0E0EC0FFD1FE20FF31F805DC6
S11305808083062F172F2F5F3F4F02C020E030E0FB
S1130590101611064CF3E0E0F0E00FC0C7018E0F17
S11305A09F1F21503109A1E0B0E0AC0FBD1FA20F85
S11305B0B31F4C91DC014C9331961216130674F35D
S11305C08F010F5F1F4FD701AE0FBF1F8EE28C93B9
S11305D09F012E5F3F4F0E0D1F1DC6016AE070E0A4
S11305E00E942009605DD8016C933396D701A20F55
S11305F0B31F805D8C93EE0DFF1D10822A960FB6FB
S1130600F894DEBF0FBECDBFDF91CF911F910F9144
S1130610FF90EF90DF90CF90BF90AF909F908F901E
S11306200895CF93DF93CDB7DEB72A970FB6F8942A
S1130630DEBF0FBECDBF242FAE014F5F5F4F0E94C0
S11306407602CE0101960E9443022A960FB6F894D0
S1130650DEBF0FBECDBFDF91CF910895813021F071
S113066098F18230C9F008950E94710260E070E050
S113067080E090E00E9459028DE091E00E944302E4
S11306802FEF8DE399E4215080409040E1F700C0C2
S113069000000E94710208950E94710260E070E0FF
S11306A080E090E00E9459028EE191E00E944302B2
S11306B02FEF8DE399E4215080409040E1F700C092
S11306C000000E94710208950E94710260E070E0CF
S11306D080E090E00E9459028FE291E00E94430280
S11306E02FEF8DE399E4215080409040E1F700C062
S11306F000000E9471020895CF92DF92EF92FF9260
S1130700CF936B017C01C22F60E070E080E090E049
S11307100E94590241E0C701B6010E94110380E220
S11307200E943A028FED0E943A0286E491E00E9410
S1130730430261E070E080E090E00E94590288E4A6
S113074091E00E944302CC2319F08FE391E002C0B0
S113075082E491E00E944302CF91FF90EF90DF90FA
S1130760CF9008950E94800690E090936A01809350
S11307706901009709F461C081349105F1F481E0C5
S113078080936C0185B1806285B90E94710260E03A
S113079070E084E090E00E9459028BE491E00E94B2
S11307A043022FEF8DE399E4215080409040E1F71C
S11307B000C000000E9471021FC081369105E1F45F
S11307C010926C0185B18F7D85B90E94710261E040
S11307D070E084E090E00E94590282E591E00E947A
S11307E043022FEF8DE399E4215080409040E1F7DC
S11307F000C000000E94710280916C018823E9F01E
S11308008091690190916A018335910521F481E019
S113081080936B0108958337910519F410926B014D
S113082008958635910521F481E080936801089547
S11308308637910511F4109268010895CF930E94B0
S1130840AF0080E70E94BB00813019F00E94B7001E
S113085034C08CEA0E94BB0083E30E94BB0080E0AA
S11308600E94BB000E94B7002FEF86E191E1215066
S113087080409040E1F700C000000E94AF0081E793
S11308800E94BB008130A1F00E94B70016C061E055
S1130890C53008F060E08C2F90E083599E4F0E9491
S11308A0D300813019F00E94B70007C0CF5F01C0A8
S11308B0C0E0C63060F30E94B700CF9108954F9214
S11308C05F926F927F92AF92BF92CF92DF92EF923C
S11308D0FF920F931F93CF93DF9300D000D0CDB737
S11308E0DEB72B013C017A0159010E94C6076983D6
S11308F07A838B839C8329813A81B901330F880BD6
S1130900990B0E94FE079B01AC01C301B2010E9436
S113091059072B013C014AE0B70189819A810E9461
S11309206A091A82198205C089819A8101969A837B
S11309308983E981FA81EE0DFF1D80818111F4CF55
S113094029813A812F5F3F4F3A8329838EE2808346
S113095000E010E02AC020E030E040E251E4C301AE
S1130960B2010E948F082B013C010E94C607C98076
S1130970DA803FEFC31AD30AE981FA81EE0DFF1D35
S113098020E3260F2083072E000C880B990B0E946E
S1130990FE079B01AC01C301B2010E9459072B0160
S11309A03C010F5F1F4FDA82C9820A151B059CF2B6
S11309B029813A812E0D3F1DF90110820F900F906D
S11309C00F900F90DF91CF911F910F91FF90EF90B7
S11309D0DF90CF90BF90AF907F906F905F904F90DB
S11309E00895CF92DF92EF92FF920F931F93CF93CC
S11309F0DF93CDB7DEB72A970FB6F894DEBF0FBEEC
S1130A00CDBF082F162F69017A0183E70E9489065A
S1130A10602F70E080E090E00E94FC070E943C0799
S1130A2080E20E94890682E70E948906612F70E0B5
S1130A3080E090E00E94FC070E943C0780E20E9454
S1130A40890684E50E94890621E030E0AE014F5F0B
S1130A505F4FC701B6010E945F04CE0101960E9458
S1130A60900680E20E9489068AE00E9489062A96FE
S1130A700FB6F894DEBF0FBECDBFDF91CF911F91AB
S1130A800F91FF90EF90DF90CF90089541E060EADE
S1130A9076E881E090E00E9453000E9474060E9470
S1130AA0690160E070E080E090E00E9459028AE50C
S1130AB091E00E9443022FEF87EA91E621508040A3
S1130AC09040E1F700C000000E9471028AB1846086
S1130AD08AB98BB184608BB90E94AF0080E70E9411
S1130AE0BB0081EE0E94BB000E94B7002FEF86E19D
S1130AF091E1215080409040E1F700C000000E9445
S1130B00B2030E941E04EDE6F1E063816F70862F4C
S1130B1090E0A0E0B0E0BC0155274427848190E038
S1130B20A0E0B0E0BA2FA92F982F8827842B952B0B
S1130B30A62BB72B2581BC01CD01622B0E94FC079B
S1130B4020E030E048E453E40E948F0820E030E0E5
S1130B5040E855E30E948F0820E030E048E452E486
S1130B600E945907609387017093880180938901DB
S1130B7090938A0121E030E043E751E00E945F0452
S1130B808BB18B7F8BB960918701709188018091C3
S1130B90890190918A0120E030E048EE51E40E94FE
S1130BA08A0818166CF40E94AF0080E80E94BB000B
S1130BB0813019F486E50E94BB000E94B7000CC086
S1130BC00E94AF0080E80E94BB00813019F486E7E0
S1130BD00E94BB000E94B7000E94AF0081E80E94FF
S1130BE0BB00813059F484E88093BC008091BC0040
S1130BF08823E4F78091BB0080930C010E94B70026
S1130C008FE19EE40197F1F700C0000080910C0190
S1130C109FEF980F923030F491E090936B010E9413
S1130C202E030BC0811105C010926B010E942E038C
S1130C3004C0843011F410926B0190916B01809187
S1130C400B019817B1F00E94AF0080E80E94BB002E
S1130C50813049F480916B01813011F483E501C046
S1130C6083E70E94BB000E94B70080916B018093D0
S1130C700B019091680180910A019817B1F00E94CC
S1130C80AF0080E80E94BB00813049F48091680184
S1130C90813011F486E501C086E70E94BB000E9402
S1130CA0B7008091680180930A0160918701709177
S1130CB088018091890190918A0100916C012091B1
S1130CC06B0140910C010E947C03209187013091BB
S1130CD088014091890150918A0160910C018091B1
S1130CE06B010E94F1040BCF1092C50087E680933C
S1130CF0C40088E98093C10086E08093C20008950F
S1130D008091C00088231CF48091C600089580E07F
S1130D1008959091C00095FFFCCF8093C60008957C
S1130D20AC0120E007C09091C00095FFFCCF309348
S1130D30C6002F5FFA01E20FF11D30813111F3CFAC
S1130D4008958F929F92AF92BF92CF92DF92EF92CB
S1130D50FF920F931F93CF93DF93CDB7DEB72A97FC
S1130D600FB6F894DEBF0FBECDBF4B015C017A0114
S1130D700E94C6078B01072E000C880B990B0E945A
S1130D80FE079B01AC01C501B4010E94590720E094
S1130D9030E048EC52E40E948F080E94C6076B01C1
S1130DA0772324F4CC24DD24C61AD70A01151105AF
S1130DB0C1F480E3D7018C93E1E0F0E02CC0C801DA
S1130DC06AE070E00E942009E1E0F0E0EC0FFD1F12
S1130DD0E20FF31F805D8083062F172F2F5F3F4F95
S1130DE002C020E030E0101611064CF3E0E0F0E021
S1130DF00FC0C7018E0F9F1F21503109A1E0B0E041
S1130E00AC0FBD1FA20FB31F4C91DC014C93319664
S1130E101216130674F38F010F5F1F4FD701AE0F25
S1130E20BF1F8EE28C939F012E5F3F4F0E0D1F1D3F
S1130E30C6016AE070E00E942009605DD8016C93ED
S1130E403396D701A20FB31F805D8C93EE0DFF1D67
S1130E5010822A960FB6F894DEBF0FBECDBFDF9185
S1130E60CF911F910F91FF90EF90DF90CF90BF90A3
S1130E70AF909F908F900895CF93DF93CDB7DEB757
S1130E802A970FB6F894DEBF0FBECDBF22E0AE01A5
S1130E904F5F5F4F0E94A106CE0101960E9490060B
S1130EA02A960FB6F894DEBF0FBECDBFDF91CF9167
S1130EB008955058BB27AA270E9471070C94500824
S1130EC00E94420838F00E94490820F039F49F3FFC
S1130ED019F426F40C943F080EF4E095E7FB0C9407
S1130EE03908E92F0E94610858F3BA17620773079B
S1130EF08407950720F079F4A6F50C9483080EF482
S1130F00E0950B2EBA2FA02D0B01B90190010C0115
S1130F10CA01A0011124FF27591B99F0593F50F42D
S1130F20503E68F11A16F040A22F232F342F442785
S1130F30585FF3CF469537952795A795F04053957D
S1130F40C9F77EF41F16BA0B620B730B840BBAF04D
S1130F509150A1F0FF0FBB1F661F771F881FC2F7B8
S1130F600EC0BA0F621F731F841F48F487957795CC
S1130F706795B795F7959E3F08F0B0CF9395880F86
S1130F8008F09927EE0F9795879508950E94CD074D
S1130F906894B1110C94840808950E94690888F03B
S1130FA09F5798F0B92F9927B751B0F0E1F0660F29
S1130FB0771F881F991F1AF0BA95C9F714C0B1306A
S1130FC091F00E948308B1E008950C948308672F80
S1130FD0782F8827B85F39F0B93FCCF38695779599
S1130FE06795B395D9F73EF4909580957095619582
S1130FF07F4F8F4F9F4F0895E89409C097FB3EF4AD
S113100090958095709561957F4F8F4F9F4F992351
S1131010A9F0F92F96E9BB279395F69587957795CF
S11310206795B795F111F8CFFAF4BB0F11F460FF8F
S11310301BC06F5F7F4F8F4F9F4F16C0882311F0E7
S113104096E911C0772321F09EE8872F762F05C0FB
S1131050662371F096E8862F70E060E02AF09A9596
S1131060660F771F881FDAF7880F9695879597F98B
S1131070089597F99F6780E870E060E008959FEF16
S113108080EC089500240A9416161706180609061B
S1131090089500240A9412161306140605060895EA
S11310A0092E0394000C11F4882352F0BB0F40F472
S11310B0BF2B11F460FF04C06F5F7F4F8F4F9F4FB2
S11310C0089557FD9058440F551F59F05F3F71F034
S11310D04795880F97FB991F61F09F3F79F087959B
S11310E00895121613061406551FF2CF4695F1DF24
S11310F008C0161617061806991FF1CF86957105B4
S1131100610508940895E894BB2766277727CB01E7
S113111097F908950E94FC0808F48FEF08950E943F
S1131120A2080C9450080E94420838F00E94490812
S113113020F0952311F00C9439080C943F081124E5
S11311400C9484080E94610870F3959FC1F3950F75
S113115050E0551F629FF001729FBB27F00DB11D37
S1131160639FAA27F00DB11DAA1F649F6627B00DC7
S1131170A11D661F829F2227B00DA11D621F739FB0
S1131180B00DA11D621F839FA00D611D221F749FBE
S11311903327A00D611D231F849F600D211D822F05
S11311A0762F6A2F11249F5750409AF0F1F088232C
S11311B04AF0EE0FFF1FBB1F661F771F881F915059
S11311C05040A9F79E3F510580F00C9439080C94C7
S11311D084085F3FE4F3983ED4F38695779567954A
S11311E0B795F795E7959F5FC1F7FE2B880F911D83
S11311F09695879597F90895990F0008550FAA0BAE
S1131200E0E8FEEF16161706E807F907C0F0121615
S11312101306E407F50798F0621B730B840B950B18
S113122039F40A2661F0232B242B252B21F408956D
S11312300A2609F4A140A6958FEF811D811D08950A
S113124097FB072E16F4009407D077FD09D00E946F
S1131250560907FC05D03EF4909581959F4F08955B
S1131260709561957F4F0895A1E21A2EAA1BBB1BAE
S1131270FD010DC0AA1FBB1FEE1FFF1FA217B3075E
S1131280E407F50720F0A21BB30BE40BF50B661F74
S1131290771F881F991F1A9469F760957095809538
S11312A090959B01AC01BD01CF010895AA1BBB1B06
S11312B051E107C0AA1FBB1FA617B70710F0A61B52
S11312C0B70B881F991F5A95A9F780959095BC0173
S11312D0CD010895BB274A3031F4992322F4BDE2AD
S11312E0909581959F4F0C947609BB27FB01552758
S11312F0AA27880F991FAA1FA41710F0A41B83956F
S11313005051B9F7A05DAA3308F0A95DA1930097E5
S113131079F7B111B1931192CB010C948F09DC01CF
S1131320FC01672F71917723E1F7329704C07C9118
S11313306D9370836291AE17BF07C8F30895F89454
S1051340FFCFD9
S1131342030405060708090A0B0CFFFF034269653B
S11313526E76656E69646F205061626C6F004269DB
S1131362656E76656E69646F20506564726F0041C4
S1131372636365736F2064656E656761646F004FB4
S11313824E004F4646004300533A004F4E4C494EDE
S113139245004F46464C494E4500496E69636961B2
S10B13A26E646F2E2E2E000074
S9030000FC
